:020000040800F2
:10000000E8AD00205D0200085D7E00086957000829
:100010004D7D00086718000819B7000800000000AF
:100020000000000000000000000000009D0100082A
:10003000C522000800000000F9010008258E000814
:1000400077020008770200087702000877020008AC
:100050007702000877020008C7220008770200082C
:1000600077020008CD220008D3220008770200089A
:10007000770200087702000877020008770200087C
:10008000770200087702000877020008811800084C
:10009000691800087518000877020008D9220008BE
:1000A000770200087702000877020008770200084C
:1000B00077020008258F0008770200087702000801
:1000C000770200087702000877020008770200082C
:1000D000770200087702000877020008D996000826
:1000E000770200087702000877020008770200080C
:1000F00077020008770200087702000877020008FC
:1001000077020008770200087702000877020008EB
:1001100077020008770200087702000877020008DB
:1001200077020008E91E000877020008770200083D
:10013000770200087702000877020008A518000877
:100140008D180008991800087702000871800008CF
:1001500077020008F51E000877020008959700084E
:10016000770200087702000877020008770200088B
:1001700077020008770200087702000800000000FC
:100180007702000877020008DFF80CD001F07EF853
:1001900000480047D5CD0008E8AD00202C4B196879
:1001A0000868B0E8F04F80F30988BFF36F8F4FF015
:1001B000000080F3118870470000000008480068C4
:1001C000006880F308884FF0000080F3148862B65E
:1001D00061B6BFF34F8FBFF36F8F00DF00BF00BF6B
:1001E00008ED00E0DFF80C00016841F470010160E7
:1001F000704700BF88ED00E0EFF30980BFF36F8F19
:10020000134B1A681EF0100F08BF20ED108A20E96A
:10021000F04F106009B44FF0500080F31188BFF325
:100220004F8FBFF36F8F0DF01FFF4FF0000080F373
:10023000118809BC19680868B0E8F04F1EF0100F6B
:1002400008BFB0EC108A80F30988BFF36F8F704746
:1002500030000020EFF3058070470000064880471B
:1002600006480047FEE7FEE7FEE7FEE7FEE7FEE79B
:10027000FEE7FEE7FEE7FEE7D18E000889010008F1
:10028000DFED300AB5EEC00A60EE200ABDEEE01ADE
:1002900011EE100AF1EE10FA38BF401E00EE100AFF
:1002A0009FED291AB8EEC00A70EEC00A20EE810A4E
:1002B000BCEEC00A10EE100A00EE100A0028B8EEDC
:1002C000C00A10EE810AB8BF002004DBB0F5807FC1
:1002D000C8BF4FF480701D4960EE000AB6EE001AE8
:1002E000DFED1C2A9FED1A2A60EE011A60EE225AF9
:1002F00020EE813A20EE022A21EEA01A01EB8000C6
:1003000073EE655A62EE202AB7EE006A33EE003AC9
:10031000D0EC043A76EE611A71EE600A35EEE20A2C
:1003200033EE413A32EEC21A70EEA10A20EE230AF1
:1003300064EE831A04EE200A45EE011A31EE800ABB
:100340007047000083F9223E00008043DCEF000884
:10035000ABAA2A3EABAAAA3EDFED300AB5EEC00A30
:1003600060EE200ABDEEE01A11EE100AF1EE10FA6E
:1003700038BF401E00EE100A9FED291AB8EEC00AE1
:1003800070EEC00A20EE810ABCEEC00A10EE100A20
:1003900000EE100A0028B8EEC00A10EE810AB8BFBD
:1003A000002004DBB0F5807FC8BF4FF480701D498A
:1003B00060EE000AB6EE001ADFED1C2A9FED1A2A45
:1003C00060EE011A60EE225A20EE813A20EE022AF7
:1003D00021EEA01A01EB800073EE655A62EE202A2E
:1003E000B7EE006A33EE003AD0EC043A76EE611ACA
:1003F00071EE600A35EEE20A33EE413A32EEC21A8D
:1004000070EEA10A20EE230A64EE831A04EE200A9D
:1004100045EE011A31EE800A7047000083F9223E52
:1004200000008043ECF30008ABAA2A3EABAAAA3E28
:1004300070B405880E884468D1F804C05368B5428A
:1004400008D140884988884201BF11888D4251886F
:10045000884203D070BC6FF00200704705FB00F1CA
:10046000880825D094ED001ADCED000A94ED010A0D
:10047000D4ED021A71EE200A9CED011A30EE011A39
:100480009CED020AC3ED000A83ED011AD4ED030AC4
:100490009CED031A31EE800A103470EE810A83ED70
:1004A000020A0CF1100CC3ED030A1033401ED9D11F
:1004B00001F00300B0F1004F0BD300BFB4EC010A10
:1004C000401EFCEC010A30EE200AA3EC010AF5D133
:1004D0002BE0002829DD211F1B1FACF1040210F0C6
:1004E000010F0AD0091D121D91ED000AD2ED000A7C
:1004F0001B1D30EE200A83ED000A400815D000BF16
:1005000091ED010AD2ED010A0831083230EE200ADD
:1005100083ED010A91ED000AD2ED000A0833401E76
:1005200030EE200A83ED000AEAD170BC002070474B
:1005300001804280436070472DE9F04F87B04268E8
:1005400000924A680192B0F800E045889FEDFE0AEB
:1005500000200390AE4506D108884988884204BF30
:100560007146864504D007B06FF00200BDE8F08FF9
:1005700010465FEA010C1CBF9FEDF41AF0EE400A32
:1005800042D000BFAEEB0C01B1F1004F05D300BF6C
:10059000E0EC010A491EFBD113E0002911DD021F26
:1005A00011F0010F1CBF121DC2ED000A4B1006D046
:1005B000C2ED010A08325B1EC2ED000AF8D100EB61
:1005C0008100ACF10101A0EC011AB1F1004F04D39C
:1005D000E0EC010A491EFBD113E0002911DD021FE6
:1005E00011F0010F1CBF121DC2ED000A4B1006D006
:1005F000C2ED010A08325B1EC2ED000AF8D100EB21
:100600008100BCF1010CBDD14FF0000A0295002D14
:1006100008BF002000F006824FEA5E0006900EFB45
:1006200005F00590401BF0EE401A049000990AFB7B
:1006300005F001EB8004019A94ED000A02EB8000C2
:10064000012621460346F0EE610ABEF1000F5BD0A1
:10065000A4EB85021EF0010F18D002EB850292ED8B
:10066000001AB5EEC01AF1EE10FA08DDB4EEE01A89
:10067000F1EE10FA0ADD00BFF0EE410A06E0B1EE3D
:10068000411AF4EEC10AF1EE10FAF5D3DDF818C004
:10069000BCF1000F33D000BF02EB850797ED001AC5
:1006A000B5EEC01AF1EE10FA05DDB4EEE01AF1EE87
:1006B00010FA09DD06E0B1EE411AF4EEC10AF1EEDE
:1006C00010FA01D2F0EE410A02EBC50292ED001AD7
:1006D000B5EEC01AF1EE10FA05DDB4EEE01AF1EE57
:1006E00010FA09DD06E0B1EE411AF4EEC10AF1EEAE
:1006F00010FA01D2F0EE410ABCF1010CCCD1049AFF
:1007000001EB850C0CEB8204F5EEC00AF1EE10FA59
:1007100000F08081B5EEC00A059AF1EE10FAA4EB64
:10072000820CD4BFB1EE401AB0EE401AB4EE601A9B
:10073000F1EE10FA5CD0AEEB0A02571E58D005FB62
:100740000AF20CEB820292ED002A00BFB0EE421AD0
:1007500005FB06F4B5EEC01A00EB8404F1EE10FAC6
:10076000D8BFB1EE411AB4EE601AF1EE10FA3CD1E6
:10077000A5EB0A06B6F1004F0BD300BF92ED000ABD
:10078000DCED000A761EE2EC010AACEC010AF5D1C0
:100790000CE0002E0ADD00BF92ED000ADCED000A3D
:1007A000761EE2EC010AACEC010AF5D12A46B5F15D
:1007B000004F0AD394ED000AD0ED000A521EE4EC7B
:1007C000010AA0EC010AF5D10CE0002A0ADD00BF05
:1007D00094ED000AD0ED000A521EE4EC010AA0ECF0
:1007E000010AF5D1012003900AE0761C7F1EADD1ED
:1007F0000398012804D0B5EEC00AF1EE10FA7CD0BF
:10080000A5EB0A0091ED000A8B4699460746B0F128
:10081000004F08D3D1ED000A401E80EE801AA1ECF3
:10082000011AF7D11FE000281DDDABF1040110F023
:10083000010F06D0F0EE400A80EEA01A81ED011AF9
:10084000091D78100FD000BFD1ED010A80EE801A8B
:1008500081ED011AD1ED020A80EE801A81ED021AB3
:100860000831401EF0D12846B5F1004F09D300BF32
:10087000D3ED000A401E80EE801AA3EC011AF7D1D6
:100880001FE000281DDDA9F1040110F0010F06D0C2
:10089000D1ED010A80EE801A81ED011A091D681060
:1008A0000FD000BF91ED011AC1EE000AC1ED010A9F
:1008B000D1ED020A80EE801A81ED021A0831401E45
:1008C000F0D1DDE900124FF000085FEA0E067CD09F
:1008D000D04504BF01EB870102EB850258D091EDB2
:1008E000000ADC4648463B46B7F1004F0DD300BF37
:1008F000D1ED000ABCEC011A00E08BE040EE410AA9
:100900005B1EE1EC010AF3D133E0002F31DD0B1F58
:10091000ABF1040C17F0010F0CD00CF1040CF0EE4D
:10092000400A9CED002AB0EE601A00EEC21A83ED78
:10093000011A1B1D7C101AD0D3ED010A9CED011A7F
:1009400040EE410A04E00000000000000000803F8B
:10095000C3ED010A0CF1080C93ED021ADCED000A5C
:1009600000EE601A83ED021A0833641EE4D101EB35
:1009700087012B46B5F1004F0BD300BFF0EC010A05
:1009800092ED001A5B1E00EE601AA2EC011AF5D17E
:100990002FE0002B2DDDA2F1040CA9F1040013F0CF
:1009A000010F0AD0001DDCED010A90ED001A40EEA7
:1009B000410ACCED010A0CF1040C5C1017D000BF09
:1009C0009CED011AD0ED010A00E019E000EE601A7A
:1009D0000830641E8CED011ADCED020A90ED001A5D
:1009E00040EE410ACCED020A0CF1080CE8D102EB12
:1009F000850201EB8A01761E08F101087FF468AFD9
:100A000000980AF1010A001D00900298401E029011
:100A10007FF40CAE03990020012904BF07B0BDE8A4
:100A2000F08F00BFB5EEC00AF1EE10FA08BF6FF00C
:100A3000040007B0BDE8F08F2DE9F04F4468B0F82E
:100A4000009045880888B1F802C0D2F804A04FF0A1
:100A5000000B854204BF1388994507D152889445FD
:100A600004BF9FED322A4FEA950E03D06FF00200CB
:100A7000BDE8F08FD1F804000AEB8B08664600272A
:100A8000B0EE420A23465FEA0E0224D090ED001A2F
:100A9000D3ED001A00EB8C00D3ED010A01EE810AC0
:100AA00090ED001A00EB8C00D3ED021A00EE810AE3
:100AB00090ED001A00EB8C00D3ED030A1033521EA8
:100AC00001EE810A90ED001A120400EB8C00120C6A
:100AD00000EE810ADAD115F003020BD0F3EC010A23
:100AE00090ED001A521E120400EB8C0000EE810AF9
:100AF000120CF3D1781CA8EC010A87B24868721E68
:100B0000160400EB8700360CBAD10BEB0C001FFA71
:100B100080FBA9F101001FFA80F904EB8504B9F10B
:100B2000000FA7D10020BDE8F08F000000000000FA
:100B300070B405880E884468D1F804C05368B54283
:100B400008D140884988884201BF11888D42518868
:100B5000884203D070BC6FF00200704705FB00F1C3
:100B6000880825D094ED001ADCED000A94ED010A06
:100B7000D4ED021A71EE600A9CED011A30EE411AB2
:100B80009CED020AC3ED000A83ED011AD4ED030ABD
:100B90009CED031A31EEC00A103470EEC10A83EDE9
:100BA000020A0CF1100CC3ED030A1033401ED9D118
:100BB00001F00300B0F1004F0BD300BFB4EC010A09
:100BC000401EFCEC010A30EE600AA3EC010AF5D1EC
:100BD0002BE0002829DD211F1B1FACF1040210F0BF
:100BE000010F0AD0091D121D91ED000AD2ED000A75
:100BF0001B1D30EE600A83ED000A400815D000BFCF
:100C000091ED010AD2ED010A0831083230EE600A96
:100C100083ED010A91ED000AD2ED000A0833401E6F
:100C200030EE600A83ED000AEAD170BC0020704704
:100C3000F0B4038842684488488800264D689C4682
:100C4000834205BF09888C426FF00200A7081CBFD1
:100C5000F0BC7047380005EB86011BD0B2EC010AEE
:100C6000401E0004000C81ED000A01EB8301B2EC90
:100C7000010A81ED000A01EB8301B2EC010A81ED6A
:100C8000000A01EB8301B2EC010A81ED000A01EBDD
:100C90008301E3D114F003000AD000BFB2EC010AD3
:100CA000401E0004000C81ED000A01EB8301F5D128
:100CB000701C86B2ACF101001FFA80FCBCF1000F81
:100CC000C8D1F0BC002070472DE9F05F0546002038
:100CD00092469B4688460646814640241BE02846AD
:100CE00041464746224600F01BFA53465A46C01A70
:100CF000914110D311461846224600F002FA2D1AEF
:100D000067EB01084F4622460120002100F0F9F967
:100D100017EB00094E41201EA4F10104DFDC484618
:100D200031462A464346BDE8F09F40EA01039B074F
:100D300003D009E008C9121F08C0042AFAD203E050
:100D400011F8013B00F8013B521EF9D27047D2B2B4
:100D500001E000F8012B491EFBD270470022F6E7A4
:100D600010B513460A4604461946FFF7F0FF204621
:100D700010BD2DE9FE4F804681EA0300C00F0C46EE
:100D8000009021F0004123F00045B8EB0200A9419A
:100D900005D24046214690461C460B46024623F0AB
:100DA0000040104347D0270DC7F30A00C3F30A5190
:100DB0000290401A019040286BDAC3F3130040F40C
:100DC000801B0098924620B10023D2EB030A63EB0C
:100DD0000B0B01985946C0F14002504600F091F9C2
:100DE00006460D4650465946019A00F0A9F910EB07
:100DF00008006141002487EA115284EAE7731A432C
:100E000040D0009A62B3019A012A4FEA075215DCDA
:100E1000001B61EB02014FF0004202EA0752CDE9EC
:100E20000042001C41F5801132462B4600F0E0F9EB
:100E300003B0BDE8F08F40462146F9E7001B61EBA7
:100E40000201001C41F5801300185B412018A2F537
:100E5000001747EB030140EAD570B6196D4111E068
:100E60006D084FEA360645EAC0754FEA0752001B87
:100E700061EB0201001C41F5801149084FEA300086
:100E80000019514132462B4603B0BDE8F04F00F047
:100E9000A0B90098012240000023D0EB020263EBCE
:100EA000E073009821464FEAE074B8EB000061EB74
:100EB0000401E9E783F000435BE781F0004158E774
:100EC0002DE9FE4F81EA030404F0004421F00041C3
:100ED00000944FF0000B23F0004350EA01045ED071
:100EE00052EA03045BD0C3F30A54C1F30A552C44FD
:100EF000A4F2F3340194A0FB0254C1F3130141F4B2
:100F00008011C3F3130343F4801301FB024400FB7D
:100F1000034E840A970A44EA815447EA8357A4FBA4
:100F2000076802958D0A05FB07854FEA932C04FBA1
:100F30000C542705029D4FEA065847EA1637B5EBD1
:100F400008056EEB070C870E920E47EA811742EAFE
:100F50008312A7FB0201B6EB0B0164EB00042B0D1F
:100F600043EA0C335E1844EB1C50DA465146E7FB6B
:100F70000201C5F313044FEA0B3343EA14534FEA5B
:100F80000432019C43EA0603A4F10C040294009C81
:100F9000CDE900B400F02CF903B0BDE8F08F0020DB
:100FA0000146F9E72DE9F04D81EA030404F0004B16
:100FB00021F0004514464FF0000A23F0004150EAAA
:100FC000050220D054EA01021DD0C5F30A5702469B
:100FD000C5F31303C1F31300C1F30A5640F480159F
:100FE00043F48013A7EB0608101BD64608F2FD3821
:100FF00073EB050002D308F1010801E092185B4190
:10100000B8F1000F03DA00200146BDE8F08D0020A2
:101010004FF48011064684460EE0171B73EB05075C
:1010200005D3121B63EB050306434CEA010C490888
:101030004FEA300092185B4150EA0107EDD152EAC5
:10104000030012D082EA040083EA0501084305D0B8
:10105000101BAB4106D20122002306E000224FF014
:10106000004302E06FF0010253101AEB06004CEB54
:10107000085110EB0A0041EB0B01BDE8F04D00F008
:10108000A8B80EB5C10F80EAE0700844CA07002175
:1010900040F233438DE80E000A460B4600F0A8F8F4
:1010A00003B000BD00F0004230F000400AD0C10D96
:1010B00001F56071C0F3160042EA0151C208400711
:1010C0001143704700200146704701F0004330B4DF
:1010D00021F0004150EA010206D00A0DA2F560722B
:1010E000C1F31301002A02DC30BC00207047440F1A
:1010F00044EAC104C100E01830BC00EBC25000F06B
:1011000031B8202A04DB203A00FA02F100207047AF
:101110009140C2F1200320FA03F319439040704735
:10112000202A04DB203A21FA02F00021704721FA3C
:1011300002F3D040C2F120029140084319467047A3
:10114000202A06DBCB17203A41FA02F043EAE0738B
:1011500006E041FA02F3D040C2F120029140084378
:10116000194670470029A8BF7047401C490008BFB6
:1011700020F00100704710B4B0FA80FC00FA0CF0C7
:1011800050EA010404BF10BC704749B1CCF12004FF
:1011900021FA04F411FA0CF118BF0121214308438C
:1011A000A3EB0C01CB1D4FEA00614FEA102042BFB8
:1011B000002010BC704700EBC35010440029A4BFAE
:1011C00010BC7047401C490008BF20F0010010BC53
:1011D000704710B5141E73F1000408DA401C41F189
:1011E000000192185B411A4301D120F0010010BDAB
:1011F0002DE9F04D92469B4611B1B1FA81F202E021
:10120000B0FA80F220329046FFF77BFF04460F468B
:1012100040EA0A0041EA0B0153465A46084313D0FC
:10122000114653EA010019D0C8F140025046FFF7B9
:1012300077FF05460E46504659464246FFF761FF86
:10124000084305D0012004E020463946BDE8F08D72
:101250000020054346EAE0762C4337430A986305AD
:10126000E40AA0EB08000022FD0A44EA47540A30D1
:1012700002D500200146E9E7010510196941DDE9C1
:10128000084500196941BDE8F04DA2E7064C074D3D
:1012900006E0E06840F0010394E807009847103446
:1012A000AC42F6D3FEF774FFF4F8000814F9000816
:1012B00070B58C1810F8015B15F0070301D110F818
:1012C000013B2A1106D110F8012B03E010F8016B45
:1012D00001F8016B5B1EF9D12B0705D40023521EC8
:1012E0000DD401F8013BFAE710F8013BCB1A921C30
:1012F00003E013F8015B01F8015B521EF9D5A1422E
:10130000D8D3002070BD00000A250C4C14270C4EC9
:1013100009E0E580678103E000F010FD0CF040FC7F
:1013200001200BF09DFD0BF001FD0BF0CFFC00F058
:1013300031FD707A0228EFD1EBE70000AA7000209F
:10134000287000202DE9F0412C4C2D4F2D4D208888
:101350002D4E00281FD095ED0A0A84ED180A96ED4F
:101360000A0A84ED190A00202080B7F90800C0EBB2
:10137000C00000EB400006EB8000D4300BF0AAFD6B
:10138000B7F90800C0EBC00000EB400005EB80009F
:10139000D4300BF09FFD1D49D1F8050000EE100A76
:1013A000B5EEC00AF1EE10FA01D0206603E095ED2B
:1013B0000A0A84ED180AB1F9030030B100EE100AF0
:1013C000B8EEC00A84ED190A03E096ED0A0A84ED2E
:1013D000190AB7F9080094ED180AC0EBC00000EB39
:1013E000400005EB800181ED350A94ED190A06EB0A
:1013F000800080ED350ABDE8F0810000C8000020C3
:10140000AA700020189900209C9B0020C7A10020F2
:101410007047000001221021014802F0F5B80000D9
:101420000000024000221021014802F0EDB8000047
:101430000000024001221146014802F0E5B8000018
:101440000004024000220121014802F0DDB8000042
:101450000004024070B50446FFF7E4FF922000F05C
:1014600035F906226849122000F012F9FFF7D2FF81
:10147000654DA5F1200668782978000200B208437E
:1014800000EE100AD6ED030AB8EEC00A60EE200A9C
:1014900094ED080A60EE800AC4ED000AE878A978A5
:1014A000000200B2084300EE900AB8EEE01AD6ED52
:1014B000030A21EE201A21EE001A84ED011A687940
:1014C0002979000200B20843308101EE100AB8EE1B
:1014D000C11A61EE200A20EE800A84ED020AFFF7AD
:1014E000B1FF08222946002000F0D2F8FFF7A2FF42
:1014F00028780F285DD1F07880B3E878A9780002C9
:1015000000B2084300EE100AD4ED090AB8EEC01A82
:1015100096ED040A51EE000AC4ED030A68792979B0
:10152000000200B2084300EE900A94ED0A1AF8EEA9
:10153000E00A10EE801A84ED041AE879A979000215
:1015400000B20843308100EE900A94ED0B1AF8EED9
:10155000E00A10EE801A84ED051A2AE0FFE7E87829
:10156000A978000200B2084300EE100AF8EEC00AA3
:1015700096ED040A60EE800AC4ED030A68792979C1
:10158000000200B2084300EE900AF8EEE00A60EEB6
:10159000800AC4ED040AE879A979000200B2084380
:1015A000308100EE900AF8EEE00A20EE800A84ED29
:1015B000050AFFF737FFA22000F088F8022212493F
:1015C000222000F065F8FFF725FF28786978C00031
:1015D00040EA51103081B0F5806F02DBA0F5006069
:1015E0003081B6F90800B4EE001A00EE100AF8EEE9
:1015F000C00AB3EE070A00EE810A84ED070A0DF077
:10160000D5F80249886170BD8C040020F89800204C
:1016100070B50D46164CE0610020A0700AF09CFDEC
:10162000A1780843A0700AF02BFEA1780843A070AF
:101630001DB1104800F084F918E00E489FED0E0A25
:1016400080ED090A9FED0D0A80ED0A0A9FED0C0A54
:1016500080ED0B0A9FED0B0A80ED0C0A9FED0A0A44
:1016600080ED080A9FED090A80ED060AA07870BD9A
:101670006C040020C4980020D257053AFDA38E3B8D
:101680005BAD253B3FD41B41D0ED803F00002042A5
:1016900070B50D46144640F0800000F017F806E0E3
:1016A000552000F013F805F8010B641EE4B2002C7D
:1016B000F6D170BD10B50C4640F0800000F006F881
:1016C000552000F003F8207010BD000001B582B075
:1016D0004FF47A700090012301AA02A9024803F096
:1016E000E3F99DF804000EBDE48D002010B50C4612
:1016F000FFF7ECFF2046BDE81040FFF7E7BF000012
:1017000010B502F0A3F807F099FB05F0C7FF05F04C
:1017100031FF06F051F906F059FA06F02DF906F0FE
:101720006FF906F0D1F905F0E1FE05F001FF06F0D2
:10173000C5FA06F0E1FA06F0A5FA06F093F90CF006
:1017400041F80AF0B3FE0AF029FEA82000F0B4FC2C
:1017500001210848FFF75CFF0028F9D106F0EAF9FB
:10176000054803F03BFBBDE810400821024803F0A8
:101770008BBD0000E48D00207C8F0020B6EE002A97
:1017800092ED020AB0EE421AD2ED030A00EE401AC0
:10179000D0ED001AD0ED013A00EEE01A21EE213A28
:1017A00092ED011AD2ED001A61EE002A41EEE02A14
:1017B00061EE200A41EE800A02EEA33A90ED020AA1
:1017C000F0EE002A00EE803A23EE220A81ED000AB4
:1017D00092ED010AD2ED021A92ED001AD2ED030A3F
:1017E00020EE213AD0ED003A90ED014A01EE203A88
:1017F00023EE233AF0EE423A40EE403A40EEE03A31
:1018000061EEA00A41EE400A03EE843A90ED020A2E
:1018100000EE803A23EE220A81ED010AD2ED010AA0
:10182000D2ED031A92ED020A92ED001A20EEA13ACF
:1018300060EE211AD0ED003A00EEE02A01EE403AC7
:1018400041EE201A90ED011A00EE402A23EE233AD1
:1018500090ED020A01EE813A02EE003A23EE220AEE
:1018600081ED020A7047FEE7014801F06CB8000004
:10187000408D0020014801F066B80000408D002036
:10188000014801F060B80000408D0020014801F0DF
:101890005AB80000688D0020014801F054B80000DB
:1018A000688D0020014801F04EB80000688D0020CE
:1018B00004284FF0000070470020704710B5002248
:1018C0000449054808F084F90449034808F072F90E
:1018D000002010BDC0820020DC930020C07A0020D0
:1018E00010B504460A6821460748FFF71EFA064865
:1018F00006F0A8FC2146054808F05CF9034808F00A
:101900002DF9002010BD0000DDA10020DC93002097
:101910000020704710B50A460849D1F8BC12D1F82A
:101920001412002901D0012010BD0146034808F01F
:101930004FF9BDE81040014808F0E0B9DC93002001
:101940002DE9F04F04462DED048B89B0002007905F
:10195000089000F08FFBEA4E86ED050A04AF0DF10A
:1019600004084FF07C5BDFF89C93DFF89CA300F049
:1019700081FBD6ED050AE54930EE600A10EE100A4B
:10198000884214DD9FEDE20A84ED090A9FEDE10A29
:1019900084ED0A0A9FEDE00A84ED0B0A9FEDDF0A51
:1019A00084ED0C0A9FEDDE0A84ED060A85E19FEDC9
:1019B000DD0A00F021FB9FEDDC0A84ED0C0A84EDCA
:1019C000090A84ED0A0A84ED0B0A0025F6E0FFF708
:1019D00029FD9220FFF77AFE062207A91220FFF7C1
:1019E00057FEFFF717FD9DF81D009DF81C10000223
:1019F00000B2084300EE100AD6ED030AB8EEC00AA2
:101A000020EE200A84ED000A9DF81F009DF81E10AC
:101A1000000200B2084300EE900A96ED031AF8EEB9
:101A2000E00A60EE810AC4ED010A9DF821009DF8EC
:101A30002010000200B2084301EE900AF8EEE11A0D
:101A400021EE811A84ED021A20EE000A00EEA00AAF
:101A500001EE010A0AF0A0FAB0EE408A94ED0C0AF9
:101A600030EE080A84ED0C0AFFF7ECFC082207A907
:101A70000020FFF70DFEFFF7DDFC9DF81C000F288E
:101A800040D19DF81F009DF81E10000200B20843CF
:101A900000EE100AF8EEC00A96ED040A60EE800A25
:101AA000C4ED030A94ED091A71EE200AC4ED090A87
:101AB0009DF821009DF82010000200B2084300EEBE
:101AC000900AF8EEE00A60EE800AC4ED040A94ED94
:101AD0000A1A71EE200AC4ED0A0A9DF823009DF847
:101AE0002210000200B2084300EE900AF8EEE00A6D
:101AF00020EE800A84ED050AD4ED0B0A30EE800A50
:101B000084ED0B0A002D7DD0B4EEE88AF1EE10FAD8
:101B100001DDF0EE488AB4EEC98AF1EE10FA01D286
:101B2000B0EE489A002004EB800191ED030A07EB28
:101B30008001D1ED000AB4EEE00AF1EE10FA01DD09
:101B400081ED000A08EB8001D1ED000AB4EEE00A55
:101B5000F1EE10FA01D281ED000A401CC0B2032858
:101B6000E1D338EEC90A86ED060A002007EB8001B2
:101B7000D1ED000A08EB800191ED001A09EB80011C
:101B800070EEC10AC1ED000A401CC0B20328EDD3BB
:101B900010EE100A584515DCD9F80000504511DC4C
:101BA000D9F8040050450DDCD9F80800504509DC8F
:101BB0009FED5E0A00F020FA6D1CADB2F088854200
:101BC000FFF405AFF288D4ED0C0A00EE102AB8EE4F
:101BD000400A80EE801A84ED0C1A002000EE102AD4
:101BE00004EB8001B8EE400AD1ED090A80EE801ABC
:101BF00081ED091A401CC0B20328EFD3FFF712FC95
:101C0000A22000E066E0FFF761FD022207A9222082
:101C1000FFF73EFDFFF7FEFB9DF81C009DF81D1031
:101C2000C00040EA5110B0F5806F02DBA0F5006003
:101C300000B200EE100AB4EE001AF8EEC00AB3EEDD
:101C4000070A00EE810A84ED060AB088401CB080C5
:101C5000B06958453FF78BAE94ED0C0ADFED340ABE
:101C600030EE600AB0EEC00A10EE100A5845F1DC02
:101C7000D9F800005045EDDCD9F804005045E9DC06
:101C8000D9F808005045E5DC94ED090A2949B0EE81
:101C9000C00A10EE100A8842DCDC94ED0A0AB0EEAD
:101CA000C00A10EE100A8842D4DC94ED0B0AB0EEA4
:101CB000C00A10EE100A8842CCDC94ED0C0ADFED6D
:101CC0001E0A80EE801A84ED081A09B0BDEC048B60
:101CD000BDE8F08FF0EE488AB0EE489A002004EBA1
:101CE000800191ED030A07EB800181ED000A08EB0A
:101CF000800181ED000A401CC0B20328EFD330E719
:101D00006C040020B89800209A99193E00002041E8
:101D1000D257053AFDA38E3B5BAD253B3FD41B411B
:101D2000000020420AD7A33B000000006F12033AD4
:101D3000CDCC1C410AD7233CC3F51C4113481449A0
:101D4000027A407A012A03D1022801D00D23CB80E8
:101D5000032A03D1022801D00C23CB80022A03D10D
:101D6000022801D00B22CA80022801D10A22CA808F
:101D7000B1F906200B2A03D1032801D100230B81DE
:101D80000B2A02D1012800D1088170472870002059
:101D9000AA70002070B54B4D4B48AE8AB0F90800D0
:101DA0009FED4A0ADFED4A0A4A4C4B494B4A4C4BDD
:101DB000012E1AD158B994ED001A31EE001A84EDB3
:101DC000001A91ED001A31EE201A81ED001A012857
:101DD0000BD192ED001A31EE001A82ED001A93ED4C
:101DE000001A31EE201A83ED001AED8A012D1AD166
:101DF00058B994ED001A31EE401A84ED001A91EDB5
:101E0000001A31EE601A81ED001A01280BD192ED13
:101E1000001A31EE400A82ED000A93ED000A30EE1E
:101E2000600A83ED000A94ED000ADFED2E0AB5EE9C
:101E3000C00AF1EE10FA02D8B0EE600A06E010EE29
:101E4000100AB0F17F5F01DBB7EE080A84ED000AEB
:101E500091ED000A4FF07E50B5EEC00AF1EE10FA97
:101E600002D8B0EE600A05E010EE104A844201DBB1
:101E7000B7EE000A81ED000A92ED000AB5EEC00A45
:101E8000F1EE10FA02D8B0EE600A05E010EE101A7A
:101E9000814201DBB7EE000A82ED000A93ED000AF1
:101EA000B5EEC00AF1EE10FA02D8B0EE600A05E015
:101EB00010EE101A814201DBB7EE000A83ED000A32
:101EC00070BD0000A4000020AA700020CDCC4C3DC5
:101ED0000AD7233C380100203C01002040010020AB
:101EE0004401002000000000014801F015B9000085
:101EF0001C930020014801F00FB900007C930020E2
:101F00000168CAB2103A1823B2FBF3F2064B9B5C8D
:101F1000C3656FF30901032A02D9091D816500E039
:101F20008165806D70470000FCEB000810B501462C
:101F300000208A6A8B694FF0C074002B0ED0B3F575
:101F4000005F1AD062B3012A2AD0022A28D0032ABD
:101F500003D1C96AC90100D5012010BD1AB1012AF7
:101F600006D0022AF9D1C96AC901F6D5012010BDEF
:101F7000C96AA142FBD1012010BD52B1012A0AD089
:101F8000022A06D0032AF7D1C96AA142F4D101205E
:101F900010BD012010BDC96AC901FBD5012010BDCB
:101FA000012010BD30B50468256825F48025256022
:101FB000046863608368402B04D0036899600068FC
:101FC000C26030BD03689A600068C16030BD000027
:101FD00008B5074840680090064800990269914298
:101FE00002D2C168491CC1600099016108BD0000AE
:101FF000001000E0D00200200A4841680A4AD2EDF1
:10200000000A4268521AF8EE601A01EE102AB8EE81
:10201000411A60EE211AB4EEE11AF1EE10FAF0D393
:1020200070470000001000E0D002002000B52DED48
:10203000028B81B00D49496800910168009A511ADC
:1020400000EE101A0A49F8EE400A91ED000AB8EEC7
:10205000400A80EE808A00990160FFF7B9FF01B065
:10206000B0EE480ABDEC028B00BD0000001000E09D
:10207000D002002010B500F043F80C489FED0C1A78
:10208000818890ED000A00EE901AC088B8EE400AF0
:10209000F8EE600A00EE810A00EE900A9FED051A44
:1020A000F8EE600A00EE810A10BD00000003002077
:1020B0006F12833ABD3786350D490A6842F0807247
:1020C0000A600C4900224A600B6843F001030B6070
:1020D00009494843094908604FF47A73B0FBF3F3A8
:1020E0004B60054BB0FBF3F08860CA60704700009E
:1020F000FCED00E0001000E040420F00D0020020A4
:102100002DE9F84F204840680090FFF761FFDFF8A5
:102110007C904FF0000A0098D9F80C204FF0FF3364
:102120005146E2FB030104460D46C9E90E01D9F808
:1021300000B000235A4620462946FEF7C5FD064654
:102140000F463046A0FB0B2107FB0B1106FB0A13C1
:10215000A71A65EB030809F130042660D9F804607A
:102160000023324641463846FEF7AEFD80B2A080DD
:102170007043381A68EB0A010023D9F80820FEF7EB
:10218000A3FDE080BDE8F88F001000E0D002002041
:1021900030B54649464D91ED220A85ED050A91ED8F
:1021A000230A05F12C0282ED050A284606F050FDAF
:1021B00005F12C0006F04CFDD1ED1F0A3D4CB1EEAF
:1021C000600A84ED070A92ED081A84ED061A3A4B6C
:1021D000D1ED231AC3ED1B1A3848D1ED1D1AC0EDFD
:1021E000071AB3F90420012A03D195ED082A80EDDE
:1021F000062A022A03D191ED222A80ED062A032A1B
:102200000FD1D1ED222A93ED092AB7EE003A62EE02
:10221000822A33EE422A93ED1A3A42EE032AC0EDA7
:10222000062A91ED222A83ED1A2AC3ED170A2449C2
:10223000CA880A2A36D0B1F908100122F9B1012959
:1022400002D059890A292DD1B0F9141000EE101AC4
:10225000B8EEC00A80ED090A90ED040A80ED0A0A82
:10226000B4F9140000EE100AB8EEC00A84ED090AB1
:1022700094ED040A84ED0A0A5889A0B114E0D0ED67
:10228000060AC0ED090AC0ED0A1A84ED091A84EDA8
:102290000A0AB3F90A00012801D00A2800D11A80DD
:1022A0000020588130BD1A805A8130BD606F0020F7
:1022B0005C6E002018990020C80000209C9B002024
:1022C000AA7000207047012001F0B0B8082001F08A
:1022D000ADB8102001F0AAB8202001F0A7B8B6EEE2
:1022E000002A92ED020AB0EE421AD2ED030A00EE85
:1022F000401AD0ED001AD0ED013A00EEE01A21EEBE
:10230000213A92ED011AD2ED001A61EE002A41EE57
:10231000A02A61EE200A41EEC00A02EEA33A90ED37
:10232000020AF0EE002A00EE803A23EE220A81ED46
:10233000000A92ED010AD2ED021A92ED001AD2EDD6
:10234000030A20EE213AD0ED003A90ED014A01EE69
:10235000603A23EE233AF0EE423A40EE403A40EE45
:10236000E03A61EEA00A41EE000A03EE843A90EDF5
:10237000020A00EE803A23EE220A81ED010AD2ED34
:10238000010AD2ED031A92ED020A92ED001A20EE34
:10239000A13A60EE211AD0ED003A00EEE02A01EEFB
:1023A000003A41EE601A90ED011A00EE402A23EE49
:1023B000233A90ED020A01EE813A02EE003A23EE52
:1023C000220A81ED020A704772B6FEE7D0ED030AD9
:1023D00090ED041A70EE600A30EEC11A80ED051A15
:1023E000C0ED040A80ED030AD0ED001A20EE210AA8
:1023F000D0ED011A00EEA10AD0ED020A01EE200A8A
:1024000080ED060AD0ED070AB1EE601AB4EEC10AFB
:10241000F1EE10FA02D8B0EE410A7047B4EEE00ACD
:10242000F1EE10FAF9DBB0EE600A704700B587B044
:1024300040F2FF12009200220292039208220492BC
:10244000064A030A13705070080A9070D17006ABE8
:102450006946034800F0F2F807B000BDB804002058
:10246000408D002008B50A490968496A0091018831
:10247000BDF80020511A074A89B2B1FBF2F100EE13
:10248000101AB8EE400ABDF80010018008BD000027
:10249000FC8E002040420F0010B503461046002B72
:1024A00001D0084C0AE04FF6FF7010BD13F8012B65
:1024B0004240D2B234F8122082EA1020491E4A1C4F
:1024C000F4D110BD4CEC000810B5054C03E010F839
:1024D000013B5340E25C491E4B1CF8D1104610BD35
:1024E0004CEE000810B50B480168001D0468001D83
:1024F0000068084400280BD00822074904F01AFAA3
:10250000054920460422BDE81040103104F012BAFB
:1025100010BD0000107AFF1F5204002080ED040A55
:10252000D0ED030A30EE601A80ED051A80ED030A43
:10253000D0ED020ADFED171A20EEA12AF7EE001AFD
:10254000B4EEC21AF1EE10FA09DD31EE601A80ED38
:10255000051A90ED011A31EE611A80ED011A9FED16
:102560000E2A90ED051A20EE822AB4EEC21AF1EE80
:1025700010FA09D231EE201A80ED051A90ED011AF9
:1025800031EE211A80ED011A90ED011A01EE200AB8
:10259000704700003333333F333333BF0AF02CFA34
:1025A00006F075F818489FED170A80ED8A0A17485B
:1025B00080ED8A0AB3EE0E0A0121154806F002FBEF
:1025C000144CFFF7E5FDB4F906000A2817D00B28D4
:1025D0000FD00C280DD00D280ED004F055FF0BF0B5
:1025E000AFFB05F0B5FB0BF0CBFB05200AF038FC88
:1025F000E7E706F0AFF8F2E7FEF7A4FEEFE704F036
:1026000043FFECE700000000189900209C9B00208D
:10261000046E0020AA70002090F82020012A07D024
:10262000022A05D0416A41F48021416201207047AD
:10263000006842690A43426100207047F0B590F893
:1026400020500468A468012D07D0022D05D0416AEE
:1026500041F4802141620120F0BD04F0806504F066
:102660000066354301D1E5005BD5C4F30164022C5B
:1026700005D9416A41F4000141620120F0BD012504
:10268000A5401D608B684FF4C0759BB1CE6805EB0B
:10269000041733434E6843EAC6030668F3514FF408
:1026A000C273076803EB04130E69FE50097D01290C
:1026B00009D00DE00E88CB6805EB041743EA4653BA
:1026C0000668F351EBE70168CE5846F48076CE50A9
:1026D0001179D379567941EA036193791B0443EA6E
:1026E000062319434FF4C676036806EB0416995186
:1026F0001178D37841EA0361937852781B0443EA56
:10270000022211434FF4C473026803EB0413D15047
:10271000006805EB0411425842F0010242500020CB
:10272000F0BD416A41F4001141620120F0BD00009A
:1027300010B590F82020012A07D0022A05D0416A5E
:1027400041F480214162012010BD3C4800F5007039
:10275000026842F001020260026822F47C520260C8
:1027600002684B6A42EA032202600A7D02F01F03FC
:1027700001229A40C3699343C361A0F50070CB69FD
:10278000B3B9D0F80C329343C0F80C328C894B6843
:1027900064F31F434C6900EBC404C4F840320C8955
:1027A0000B6864F31F434C6900EBC404C4F8443263
:1027B000CB69012B16D1D0F80C321343C0F80C3280
:1027C0000C884B6864F31F434C6900EBC404C4F8E5
:1027D00040320C89CB6864F31F434C6900EBC4049E
:1027E000C4F844328B697BB1D0F804321343C0F88B
:1027F00004320B6973B1D0F814321343C0F81432A9
:10280000096A01290CD010E0D0F804329343C0F8D3
:102810000432EEE7D0F814329343C0F81432EFE7F5
:10282000D0F81C121143C0F81C12D0F8001221F08D
:102830000101C0F80012002010BD0000006400403B
:10284000704730B590F82040012C07D0022C05D0FD
:10285000416A41F480214162012030BD21B1046808
:102860002469A4075ED003E00468E468A40753D099
:102870004FF4D874056804EB01142D5905F00405D4
:102880009560002D54D005682D59ED0855600568F8
:102890002C59C4F34004D4604FF4DA74056804EB97
:1028A00001142D5905F00F05156105682D59C5F363
:1028B0000725956105682C59240C54614FF4DC728E
:1028C000046802EB0112A4581C700468A458240A7E
:1028D0005C700468A458240C9C700468A258120E02
:1028E000DA704FF4DE72046802EB0112A4581C7116
:1028F0000468A458240A5C710468A458240C9C71D0
:102900000468A258120EDA71B9B10068016941F089
:1029100020010161002030BD416A41F40011416293
:10292000012030BD416A41F400114162012030BDF7
:1029300005682D596D0D1560A9E70068C16841F063
:102940002001C160E6E72DE9F05F05460024286814
:102950004669D0F804908768D0F80CA0D0F810B081
:10296000D0F81880F10748D0F90714D00121816010
:10297000B80703D5284600F06FFB0CE0780702D5B6
:102980004FF4006407E0380702D54FF4805402E0AA
:10299000284600F060FBF80516D529684FF48070D2
:1029A0008860B80503D5284600F058FB0CE0780590
:1029B00002D544F4005407E0380502D544F48044BD
:1029C00002E0284600F049FBF80316D529684FF4C9
:1029D00080308860B80303D5284600F041FB0CE046
:1029E000780302D544F4004407E0380302D544F4E8
:1029F000803402E0284600F032FB300707D55FEA5A
:102A0000CA6004D544F4007429681020C8607007B7
:102A10004FF0080707D55FEA0A7004D52868C76039
:102A2000284600F0D7F9B00706D52868C0688007A7
:102A300002D0284600F0D0F9700607D55FEACB60D7
:102A400004D544F48064296810200861B00607D5D5
:102A50005FEA0B7004D528680761284600F036FA53
:102A6000F00606D528680069800702D0284600F0E5
:102A70002FFAB00308D55FEAC96005D52968102090
:102A80004860284600F0BAFAF00307D55FEA0970FB
:102A900004D528684760284600F0E3FA300446D59C
:102AA0005FEA497040D5F00504D55FEAC87001D0EF
:102AB00044F00104B00504D55FEA887001D544F004
:102AC0000204700504D55FEA487001D544F004049F
:102AD000300529D518F0700F26D008F07000402876
:102AE00015D006DC102809D020280AD0302816D1AD
:102AF0000AE050280ED0602811D10EE044F00804FE
:102B00000DE044F010040AE044F0200407E044F033
:102B1000400404E044F0800401E044F48074286838
:102B2000816921F070018161296804204860002CCE
:102B300005D0686A204368622846FFF781FEBDE839
:102B4000F09F70B50446002C03D094F8200010B11B
:102B500004E0012070BD204600F09CF82068016868
:102B600021F00201016000F057FD054605260CE04A
:102B700000F052FD401B0A2807D9606A40F400307B
:102B8000606284F82060012070BD20684068800782
:102B9000EED42068016841F00101016000F03CFDC5
:102BA00005460CE000F038FD401B0A2807D9606A92
:102BB00040F40030606284F82060012070BD20681D
:102BC0004068C007EED0207E01283FD02068016811
:102BD00021F080010160607E01283DD020680168FD
:102BE00021F040010160A07E01283BD020680168EF
:102BF00021F020010160E07E012839D020680168C1
:102C000041F010010160207F012837D02068016861
:102C100021F008010160607F012835D0206801683B
:102C200021F004010160D4E902010843D4E904124F
:102C3000114308436168491E08432168C8610020A8
:102C40006062012084F82000002070BD20680168C7
:102C500041F080010160BEE72068016841F0400159
:102C60000160C0E72068016841F020010160C2E70F
:102C70002068016821F010010160C4E72068016844
:102C800041F008010160C6E72068016841F00401D5
:102C90000160C8E72DE9F04186B00446142101A87F
:102CA000FEF75CF8464B474ADFF810811868216848
:102CB000444C03260227401C103200254FF0090C1B
:102CC000414537D11860012807D1106840F00070E5
:102CD0001060106800F000700090206840F008005C
:102CE0002060206800F0080000900196029703958C
:102CF0000496CDF814C001A9334800F0A3FB0022CC
:102D00000521132000F008FE132000F0F7FD00223B
:102D10000521142000F000FE142000F0EFFD002239
:102D20000521152000F0F8FD152000F0E7FD06B0A4
:102D3000BDE8F081DFF894804145F8D1116841F099
:102D400080611160116801F08061009118600128B4
:102D500007D1106840F000701060106800F000703B
:102D60000090206840F002002060206800F002001F
:102D7000009060200190029703950496CDF814C04E
:102D800001A9134800F05EFB002205213F2000F05E
:102D9000C3FD3F2000F0B2FD00220521402000F0DD
:102DA000BBFD402000F0AAFD00220521412000F0DB
:102DB000B3FD412000F0A2FDB9E70000006400402F
:102DC0001404002030380240000C0240006800402B
:102DD000000402407047000010B58AB0044601AB01
:102DE00003AA00212046FFF72CFD344920688842C1
:102DF00061D10398A0F50070053802D0012849D1AF
:102E000024E09DF805009DF804102D4C40EA0120B7
:102E1000A0819DF807109DF8062041EA0221A182B9
:102E20009DF809109DF8082041EA0221E18200EE98
:102E3000100A04F50970B8EE400AFFF76FFB84ED45
:102E4000040A0BF0B3FCC4F87C0223E09DF80500F3
:102E50009DF804101B4C40EA0120A0819DF807104A
:102E60009DF8062041EA0221A1829DF809109DF8F3
:102E7000082041EA0221E18200EE100A04F50970FF
:102E8000B8EE400AFFF74AFB84ED040A0BF08EFC13
:102E9000C4F87C020BF08AFC00EE100A0A48B8EE77
:102EA000400A80ED000AD0ED010A70EE600AC0ED24
:102EB000020A80ED010A0AB010BD00000064004063
:102EC000189900209C9B00202C02002070470000D5
:102ED00010B58AB0044601AB03AA01212046FFF7D2
:102EE000B0FC4149206888422FD103983F4CA0F59F
:102EF000007002382BD001284ED0022825D19DF831
:102F000005009DF804103A4C40EA0120A0819DF88C
:102F100007109DF8062041EA0221A1829DF80910C0
:102F20009DF8082041EA0221E18200EE100A04F532
:102F30008A70B8EE400AFFF7F1FABDEEC00A84EDE0
:102F4000040A0BF033FCC4F82C010AB010BD9DF844
:102F500005009DF8041040EA0120A0819DF80710AB
:102F60009DF8062041EA0221A1829DF809109DF8F2
:102F7000082041EA0221E18200EE100A1D48B8EE65
:102F8000400AFFF7CBFABDEEC00A84ED040A0BF04D
:102F90000DFCC4F82C01D8E79DF805009DF804103D
:102FA00004F5A07440EA012020809DF807109DF8E8
:102FB000062041EA022121819DF809109DF8082090
:102FC00041EA0221618100EE100A0B48B8EE400A86
:102FD000FFF7A4FABDEEC00A84ED010A0BF0E6FB90
:102FE000C4F82001B1E7000000640040549F0020B5
:102FF000209E002068A000209CA10020704770B592
:10300000044694F82000012805D0606A40F40020AE
:103010006062012070BD022084F8200020680168F1
:1030200021F00101016000F0F7FA05460DE000F023
:10303000F3FA401B0A2808D9606A40F40030606245
:10304000052084F82000012070BD20684068C0077A
:10305000EDD1606270BD7047704770477047704730
:10306000704770472DE9F0410446A76D00F0D4FA8F
:10307000054694F835000026022806D080206065B9
:1030800084F834600120BDE8F0812068016821F0F7
:10309000160101602068416921F080014161206CC6
:1030A00008B9A06C20B12068016821F00801016016
:1030B0002068016821F0010101600BE000F0ACFA2A
:1030C000401B052806D920203434206226700320B6
:1030D0006070D8E720680068C007EFD134343F2023
:1030E00094F828108840B860267001206070002095
:1030F000C9E790F83510022903D0802141650120ED
:103100007047052180F835100068016821F0010141
:1031100001600020704700002DE9F84304464FF09D
:103120000009CDF800906F484FF416510068B0FBCD
:10313000F1F7A56D2E6894F85C00082202FA00F100
:10314000314210D02068016849070CD5016821F090
:103150000401016094F85C0002FA00F1A960606D5E
:1031600040F00100606594F85C104FF0010808FA27
:1031700001F0304208D021684969090604D5A860E9
:10318000606D40F00200606594F85C100420884097
:10319000304208D021680968890704D5A860606DAD
:1031A00040F00400606594F85C10102088403042C4
:1031B00020D02168096809071CD5A860206801682B
:1031C00049030CD50068000304D4216C91B120465A
:1031D00088470FE0A16C69B1204688470AE0016882
:1031E000C90503D4016821F008010160216C09B10F
:1031F0002046884794F85C102020884030424CD00C
:1032000021680968C90648D5A86094F835000528E2
:103210000BD020680168490330D50068000328D42A
:10322000616C51B32046884737E02068016821F07F
:10323000160101602068416921F080014161206C24
:1032400008B9A06C20B12068016821F00801016074
:1032500094F85C103F208840A86084F8349084F88B
:103260003580216D00293BD001B02046BDE8F043F8
:103270000847E16B09B1204688470EE00168C9059F
:1032800007D4016821F01001016084F8349084F8BB
:103290003580E16B09B120468847606D00281FD05A
:1032A000606DC00714D0052084F8350020680168DF
:1032B00021F0010101600098401C0090B84203D841
:1032C00020680068C007F6D184F8349084F835800F
:1032D000E16C002904D001B02046BDE8F043084766
:1032E000BDE8F8832C0000202DE9F041044600F0F1
:1032F00093F905465CB1002684F83460022084F816
:1033000035002068016821F0010101600DE0012015
:10331000BDE8F08100F080F9401B052805D9202088
:103320006065032084F83500F2E720680068C00774
:10333000F0D121680A6820480240D4E9010318430B
:10334000D4E903352B43184363691843A369184331
:10335000E3691843236A18431043626A042A03D1BD
:10336000D4E90B231A43104308602068406920F019
:103370000700656A29460543012704290DD1A06A83
:103380000543E06A48B12046FEF7D0FD28B1402051
:10339000606584F835700120BAE7206845612046F1
:1033A000FEF7AEFD94F85C203F2191408160666598
:1033B00084F835700020ABE73F8010F070B504460C
:1033C000002594F8340001280CD0012084F8340042
:1033D00094F835600020012E06D084F834000225D0
:1033E000284670BD022070BD022684F835606065F5
:1033F0002046FEF7D7FD2068016841F00101016019
:10340000EEE7000070B5044600F006F90546601CC2
:1034100002D004480078044400F0FEF8401BA042AB
:10342000FAD370BD200000207047000010B5044999
:103430000A68024202D00860FFF7F6FF10BD0000E4
:10344000143C01402DE9F84F0022DFF89091DFF89D
:103450008C8109F108094FF0010E4FF00F0C09F1B2
:10346000040A0EFA02F60B683340B34271D14C687D
:10347000022C01D0122C11D1D40800EB84073D6A34
:103480005407E40E0CFA04FB25EA0B05D1F810B042
:103490000BFA04FB4BEA050BC7F820B00768540091
:1034A0000325A540AF4391F804B00BF0030B0BFAD2
:1034B00004FB4BEA070BC0F800B04F68012F05D0A2
:1034C000022F03D0112F01D0122F11D18768AF43E3
:1034D000D1F80CB00BFA04FB4BEA070BC0F808B0AC
:1034E0004768B7430E79C6F3001696403E434660E0
:1034F000C668AE438D68A5403543C5604C68E4009E
:1035000065D5374C256845F480452560246804F46A
:1035100080440094334C22F003052544D5F8087804
:103520009407260F0CFA06F4A7432F4CA04201D1B2
:10353000002424E02D4CA04201D101241FE02C4C9A
:10354000A04201D102241AE02A4CA04202D1032455
:1035500015E03CE0284CA04201D104240FE0274CA8
:10356000A04201D105240AE0254CA04201D1062445
:1035700005E0244CA04201D1072400E00824B44017
:103580003C43C5F80848D8F800409C434D68ED031B
:1035900000D51C43C8F80040104D2D1D2C689C43DD
:1035A0004E68B60300D51C432C60D9F800409C43FC
:1035B0004D68ED0200D51C43C9F80040DAF8004020
:1035C0009C434D68AD0200D51C43CAF80040521C14
:1035D000102AFFF446AFBDE8F88F0000003C014020
:1035E0004438024000300140000002400004024024
:1035F00000080240000C024000100240001402408B
:1036000000180240001C0240002A01D0816170476E
:10361000090481617047000001488068704700001C
:103620002000002070B50446002C04D094F83D0022
:10363000002510B106E0012070BD84F83C50204602
:1036400000F0B2F8242084F83D002068016821F0E1
:103650000101016000F040FF4F4B6168994203D8BF
:103660004E49884203D304E04D49884201D20120EB
:1036700070BD4C49B0FBF1F12268566826F03F0658
:103680000E43566062689A4201D8491C07E04FF425
:10369000967251434FF47A72B1FBF2F1491C2268E1
:1036A000166A26F03F06314311626168994210D8CC
:1036B0004900401EB0FBF1F2521CC2F30B02042A77
:1036C00001D2042022E0B0FBF1F0401CC0F30B005B
:1036D0001CE0A268F2B301EBC10303EB0116431E29
:1036E000B3FBF6F35B1C43F480431B0549D092B354
:1036F00001EBC10202EB0111401EB0FBF1F0401CD6
:10370000C0F30B0040F4804040F400402168CA69D7
:103710004CF6FF739A431043C861D4E90710014384
:103720002068026822F0C00211430160D4E903015D
:1037300001432068826848F2FF339A431143816055
:10374000D4E9051001432068C26822F0FF0211434A
:10375000C16001E00EE016E02068016841F001015F
:1037600001602564202084F83D00256384F83E50E4
:10377000002070BD01EB4106431EB3FBF6F35B1C5A
:10378000B3E70120C2E701EB4101401EB0FBF1F0BD
:10379000401CC0F30B00B7E7A086010080841E0028
:1037A00000093D0040420F00F0B587B004461421E7
:1037B00002A8FDF7D3FA1D492068884233D11C487E
:1037C000016841F004010160016801F00401019108
:1037D000016841F001010160006800F00100019002
:1037E0004FF40070029012270397012404940326DB
:1037F00005960425069502A90E48FFF723FE200230
:103800000290039704940596069502A90A48FFF7CB
:1038100019FE07481030016841F40001016000689A
:1038200000F40000019007B0F0BD0000005C004013
:10383000303802400008024000000240024881681F
:1038400002781144816070472000002010B50B48B9
:10385000016841F400710160016841F48061016018
:10386000016841F480710160032000F075F80F20B9
:1038700000F006F800F026F8002010BD003C0240E1
:1038800070B504460D4D4FF47A712878B1FBF0F015
:103890000B490968B1FBF0F001F0F8F908B101201B
:1038A00070BD102C07D200222146501E00F034F8C3
:1038B0006C60002070BD012070BD00002000002061
:1038C0002C00002082B00C48016841F48041016066
:1038D000006800F4804001900748001F016841F033
:1038E00080510160006800F08050019000220F219B
:1038F000901E02B000F010B844380240002809DBE6
:1039000000F01F02012191404009800000F1E020F9
:10391000C0F8001170470000F0B40D460D4B1B6855
:10392000C3F30223C3F10704042C00D90424191D96
:10393000072901D2002300E0DB1E012606FA04F16C
:10394000491E294099409E40761E16403143F0BCE6
:1039500007F05BBF0CED00E000F00701054A1068BE
:103960004FF6FF03184040EA012003490843106066
:10397000704700000CED00E00000FA057047006899
:1039800041620020704770B50368586A002907D06B
:103990009C6A00EB144400204FF48275491E0AE033
:1039A00040EA024098620DE005EB80069E5904EB68
:1039B0001644401CC0B28842F6D305EB810144EAAC
:1039C00002405850002070BDD0F8080506F013BD25
:1039D00001EBC10200EB8202D0F80805D26C06F0C0
:1039E00037BC01EBC10200EB8202D0F80805D2F827
:1039F0008C2206F09BBCD0F8080506F0FEBC0A0637
:103A000001F00F0101EBC10100EB810101D53C3157
:103A100001E001F51F71006807F0ACBC70B5044609
:103A20000B0601F00F0000EBC00104EB81014FF029
:103A300001024FF0000502D53C314A7002E001F569
:103A40001F714D70087094F8BC04012808D084F8E8
:103A5000BC24206807F046F984F8BC54002070BDEF
:103A6000022070BD70B5044601F00F0062689042FC
:103A700001D9012070BD0B0601F00F0101EBC1015E
:103A800004EB81014FF001024FF0000502D53C31FB
:103A90004A7002E001F51F714D708D70087094F846
:103AA000BC04012808D084F8BC24206807F00EFB71
:103AB00084F8BC54002070BD022070BD01F00F01DD
:103AC00001EBC10100EB8100D0F89C0270472DE9A9
:103AD000F04104460F0601F00F0000EBC00104EBBB
:103AE00081014FF001064FF0000502D53C314E70C8
:103AF00002E001F51F714D700870CA600B714A78C1
:103B000002B10881022B00D14D7194F8BC04012848
:103B100009D084F8BC64206807F030F8284684F89F
:103B2000BC54BDE8F0810220FBE770B50D4605F0FE
:103B30000F0404EBC40100EB810101F51F710A6160
:103B40008B6100230B624B700C700369012B00D159
:103B50004A612A0705D0027C006807F00FFB0020AD
:103B600070BD027C006807F0FBF9F8E770B5044609
:103B70000D46616805F00F00884201D9012070BD33
:103B800029064FF000064FF0010206D500EBC001F8
:103B900004EB81013C314A7006E005EBC50104EB02
:103BA000810101F51F714E708A70087094F8BC0491
:103BB000012807D084F8BC24206807F0B3FA28074E
:103BC00002D007E0022070BD217C04F2C4422068CC
:103BD00007F052FA84F8BC64002070BD70B50D4641
:103BE00005F00F0404EBC40100EB81013C310A61D4
:103BF0008B6100230B6201234B700C700369012B56
:103C000000D14A612A0705D0027C006807F0B6FAA5
:103C1000002070BD027C006807F0A2F9F8E72DE9EA
:103C2000F84F04462568284607F052FC00287ED14C
:103C3000206807F079FC002879D0D5F80808C0F38F
:103C40000D20C4F8FC04206807F06EFC800704D542
:103C50002068416901F002014161206807F064FCBD
:103C6000C10604F2C440009035D52068816921F076
:103C7000100181612F6A07F00F0000EBC00004EB18
:103C8000800606F51F76C7F34340022802D00628B7
:103C900012D01BE047F6F070074217D0C7F30A12A4
:103CA00017462846316907F043FC306938443061D3
:103CB000306A3844306209E008222846009907F04B
:103CC00037FC306AC7F30A11084430622068816902
:103CD00041F010018161206807F026FC00034FF0DD
:103CE000080B4FF000094FF001085ED50026206850
:103CF00007F0F9FB824655E05FEACA704FD0F1B297
:103D0000206807F009FC0746F80707D005EB4610C6
:103D1000C0F8088B3146204604F0D4F9380709D59D
:103D200005EB4610C0F808BB3146204600E0F9E13B
:103D300004F0A4F9F80604D505EB46111020C1F8EB
:103D4000080BB8071CD56869000605D5D5F8040826
:103D500040F48061C5F8041806EBC60004EB80004F
:103D600000F51F70C178012905D180F80390F1B2E8
:103D7000204600F0DDF905EB46110220C1F8080BE2
:103D8000B80604D505EB46102021C0F8081BB8047E
:103D900005D505EB46104FF40051C0F8081B761C02
:103DA0004FEA5A0ABAF1000FA6D1206807F0BCFB0F
:103DB00040036CD5206807F08FFB8246002663E045
:103DC0005FEACA705DD0F1B2206807F093FB074646
:103DD000F80723D006F00F0108FA01F0D5F83418DF
:103DE0008143C5F8341805EB4610C0F808892069EE
:103DF00001280FD106EBC60004EB8000D0E91221A8
:103E00001144C16436B9606D20B920680121009A5F
:103E100007F032F9F1B22046FFF7DAFD380703D593
:103E200005EB4610C0F808B9F80604D505EB4611B5
:103E30001020C1F80809780604D505EB461040218A
:103E4000C0F80819B80716D53146284607F00CFB0C
:103E500006EBC60004EB80003C30C178012905D197
:103E600080F80390F1B2204600F05EF905EB4611B0
:103E70000220C1F80809380603D53146204604F06F
:103E800093F9761C4FEA5A0ABAF1000F98D12068CC
:103E900007F04AFB002811DAD5F8040820F00101E8
:103EA000C5F8041894F8F404012829D0204600F03D
:103EB0000EFA2068416901F000414161206807F075
:103EC00033FB00050BD5D5F80808C00702D0204603
:103ED00000F042FA2068416901F400614161206804
:103EE00007F022FBC00461D5D5F8040820F00101D9
:103EF000C5F804181021206807F0B6FA002120E068
:103F000084F8F49400212046FFF738FDD1E705EB53
:103F1000411000F510604FF67F328260036823F491
:103F200000130360C0F80822D0F8002222F4001227
:103F3000C0F80022D0F8002242F00062C0F800224F
:103F4000491C60688842E2D8D5F81C0840F001118D
:103F5000C5F81C18206B60B1D5F8840840F00B013F
:103F6000C5F88418D5F8440840F00B01C5F844188A
:103F70000CE0D5F8140842F22B010843C5F81408E8
:103F8000D5F8100840F00B01C5F81018D5F8000856
:103F900020F4FE61C5F80018217C2068009A07F023
:103FA0006BF82068416901F480514161206807F095
:103FB000BBFA800415D5206806F022FE206807F0C1
:103FC00077FAE06000F082FA0146227B206807F071
:103FD00015FB204600F064F92068416901F40051A6
:103FE0004161206807F0A0FA000707D5204600F0DD
:103FF00072F92068416901F008014161206807F009
:1040000093FA000615D5A86920F08001A961012660
:104010000CE006EBC60004EB800090F87F0201285C
:1040200003D1F1B22046FFF7EAFC761C6068B0428B
:10403000EFD8206807F078FAC00220D5012616E0F4
:1040400005EB4610D0F8001906EBC60004EB800023
:1040500090F84020012A09D1002907DA80F83F8032
:10406000F0B240F080012046FFF7C9FC761C606882
:10407000B042E5D82068416901F4801141612068AF
:1040800007F052FA800230D5012026E005EB4011FE
:10409000D1F8001B00EBC00204EB820292F88032E0
:1040A000012B19D1002917DA94F8FC3401F480317E
:1040B00003F0010399420FD182F87F82A96941F090
:1040C0008002AA616969090606D4D5F8040840F49B
:1040D0000070C5F8040803E0401C61688142D5D82F
:1040E0002068416901F400114161206807F01CFA61
:1040F000400007D52046FFF767FC2068416901F0C2
:1041000080414161206807F00FFA40070AD5206816
:104110004568680702D52046FFF76DFC20684168B6
:1041200029434160BDE8F88FD0F8080506F0BAB918
:10413000D0F8080506F0CBB92DE9F0418AB0044665
:10414000002C05D0266894F8BD04002520B108E0B5
:1041500001200AB0BDE8F08184F8BC54204600F08C
:104160005DF8032084F8BD04F06BC00500D4256120
:10417000206806F0EFFE04F1100128228846684608
:10418000FCF7D3FD94E80F0006F048FD022718B1B4
:1041900084F8BD740120DCE70021206807F0E7F90E
:1041A000002101260DE001EBC10004EB80003C3052
:1041B0004670017001810571C56005618561491C0A
:1041C000C9B260688842EED800210DE001EBC10061
:1041D00004EB800000F51F70457001700571C5602B
:1041E00005618561491CC9B260688842EED8282201
:1041F00041466846FCF799FD94E80F0006F0F2FD91
:1042000018B184F8BD740120A3E784F8385084F80D
:10421000BD64206806F0D8FD00209AE710B586B08E
:104220000446142101A8FCF799FD2068B0F1A04FC5
:104230002FD100211848026842F001020260006894
:1042400000F0010000904FF4C05001900220029055
:104250000391032004900A20059001A90F48FFF75D
:10426000F1F80D48001D016841F0800101600A4825
:104270001430016841F480410160006800F480401E
:104280000090002211464320FFF746FB4320FFF732
:1042900035FB06B010BD000030380240000002407F
:1042A00070B504460125E06800280ED0022801D030
:1042B000FEF78AF82946D4F8080506F079F9D4F80B
:1042C0000805BDE8704006F02CB90025F2E7D0F8EB
:1042D000080506F056B9D0F8080506F05CB910B527
:1042E000044694F8BC0401280BD0012084F8BC04D7
:1042F00084F83810206807F06AF9002084F8BC04BC
:1043000010BD022010BDD0F8082500F2C4411046AF
:1043100006F05AB910B50446206894F8BC14012977
:1043200006D0012184F8BC14A16A012902D008E05A
:10433000022010BDA169012903D0816B41F48031B5
:104340008163206807F068F8206806F02FFD0020E0
:1043500084F8BC0410BD000010B50446D4F808056C
:1043600006F074F92068D0F8001E41F00101C0F891
:10437000001E206A002804D00248016841F00601AE
:10438000016010BD10ED00E02DE9F04704460D4638
:10439000002C13D0DFF82491D9F80000EFB200F020
:1043A0000F00A8420CD289F80070D9F8000000F084
:1043B0000F00A84204D00120BDE8F0870120FBE7F0
:1043C00020683F4E810712D5400703D5306840F47E
:1043D000E05030602078000703D5306840F460403A
:1043E00030603068A16820F0F00008433060207829
:1043F000C00731D0324960680839012808D0022846
:104400000BD0032809D0096889070BD40120D3E712
:104410000968890306D40120CEE70968890101D41F
:104420000120C9E7316821F0030101433160FFF742
:10443000F3F8804641F2883A07E0FFF7EDF8A0EB89
:104440000800504501D90320B6E73068616800F0E4
:104450000C00B0EB810FF0D1D9F8000000F00F0094
:10446000A84209D989F80070D9F8000000F00F00BF
:10447000A84201D001209FE72078400705D5306889
:10448000E16820F4E050084330602078000706D54A
:104490003068216920F4604040EAC100306000F0DB
:1044A0003BF83168074AC1F30311515CC840064923
:1044B00008600F20FFF7E4F900207DE7003C024090
:1044C0000838024004EC00082C0000200148006875
:1044D000704700002C00002000B5FFF7F7FF0449EB
:1044E0000968044AC1F38221515CC84000BD000044
:1044F0000838024014EC000800B5FFF7E7FF044954
:104500000968044AC1F34231515CC84000BD000053
:104510000838024014EC000810B51748006810F085
:104520000C01164816D0164B042912D0082911D1B7
:10453000114C241F216801F03F02216849020AD56D
:104540002068C0F38810A0FB03010023FCF7BCFB2C
:1045500009E0184610BD21680023C1F38811A1FBB2
:104560000001FCF7B1FB2168C1F30141491C49007E
:10457000B0FBF1F010BD0000083802400024F40048
:10458000001BB7002DE9F84F0446002C10D020780E
:10459000DC4DC00757D0DB4808300168C1F381010A
:1045A00001290DD00068C0F38100022803D00EE07D
:1045B0000120BDE8F88FD348001D0068400206D5F1
:1045C000286880033FD5606870BB0120F1E7606810
:1045D000B0F5803F10D0B0F5A02F12D0286820F49D
:1045E00080302860286820F4802028606068E0B16E
:1045F000FFF712F8064614E0286840F4803028607F
:10460000F4E7286840F480202860286840F480306F
:104610002860EBE7FFF700F8801B642801D903202E
:10462000C7E728688003F5D50DE0FEF7F5FF0646DD
:1046300006E0FEF7F1FF801B642801D90320B8E7EC
:1046400028688003F5D42078AF4F80074FF000082A
:1046500049D5AC480830016811F00C0F09D000684A
:10466000C0F38100022814D1A648001D0068400252
:104670000FD42868800704D5E068012801D0012004
:1046800097E72868216920F0F80040EAC100286017
:1046900029E0E068B8B101203860FEF7BDFF0646AA
:1046A00006E0FEF7B9FF801B022801D9032080E74E
:1046B00028688007F5D52868216920F0F80040EACD
:1046C000C10028600FE0C7F80080FEF7A5FF06468E
:1046D00006E0FEF7A1FF801B022801D9032068E74E
:1046E00028688007F5D42078000729D5DFF81492D0
:1046F0008648616909F1740989B101210160FEF7F9
:104700008BFF064606E0FEF787FF801B022801D9D3
:1047100003204EE7D9F800008007F4D510E0C0F878
:104720000080FEF779FF064606E0FEF775FF801B66
:10473000022801D903203CE7D9F800008007F4D40F
:104740002078400772D50026DFF8B8A10AF1400AA8
:10475000DAF80000C0000BD4DAF8000040F0805016
:10476000CAF80000DAF8000000F08050009001263E
:10477000DFF89CB1DBF80000C00515D4DBF80000C1
:1047800040F48070CBF80000FEF746FF814607E05A
:10479000FEF742FFA0EB0900022801D9032008E739
:1047A000DBF80000C005F3D5DFF858B1A0680BF1C5
:1047B000700B012813D0052818D0DBF8000020F07A
:1047C0000100CBF80000DBF8000020F00400CBF87B
:1047D0000000A06830B3FEF71FFF81461DE0DBF844
:1047E000000040F00100CBF80000F2E7DBF8000029
:1047F00040F00400CBF80000DBF8000040F00100BE
:10480000CBF80000E5E7FEF707FFA0EB090141F256
:104810008830814201D90320CBE6DBF80000800715
:10482000F1D512E0FEF7F8FE81460AE015E0FEF74A
:10483000F3FEA0EB090141F28830814201D9032047
:10484000B7E6DBF800008007F1D4012E05D1DAF8D5
:10485000000020F08050CAF80000A069C0B32949C8
:1048600008310968C1F38101022949D0022805D025
:10487000C7F86080FEF7D0FE04463CE0C7F86080D1
:10488000FEF7CAFE064606E0FEF7C6FE801B0228BB
:1048900001D903208DE628688001F5D4D4E9070109
:1048A0000843616AA26A4FF0FF33890103EB5202A9
:1048B00041EA0241084394F82C1040EA0161114892
:1048C000001D016001203866FEF7A6FE044607E0E1
:1048D00014E0FEF7A1FE001B022801D9032068E6C0
:1048E00028688001F5D509E0FEF796FE001B022836
:1048F00001D903205DE628688001F5D4002058E640
:10490000012056E60038024000004742800E474230
:104910000070004070B50446002C05D00025A5624B
:1049200094F8510010B106E0012070BD84F8505099
:10493000204600F031F8022084F851002068016818
:1049400021F040010160D4E901010843D4E90312D8
:104950001143084361690843218B01F40071084346
:10496000E1690843216A0843A16A08432168086095
:10497000A069042101EA1040616A08432168486087
:104980002068C16921F40061C1616565012084F876
:104990005100002070BD00002DE9F04387B00546AE
:1049A000142102A8FCF7DAF93949286888426CD149
:1049B00000263848016841F480510160006800F425
:1049C0008050019033481438016841F002010160C1
:1049D000016801F002010191016841F001010160EB
:1049E000006800F001000190182002904FF00208CA
:1049F000CDF80C804FF00109CDF8109003240594F8
:104A00000527069702A92448FEF71CFD8020029086
:104A1000CDF80C80CDF810900594069702A91F4898
:104A2000FEF710FD1F4C1E4820604FF0C068C4F810
:104A30000480A660E660071527616661A661E661ED
:104A40004FF44030206266622046FEF74DFC08B10C
:104A5000FDF7BAFCEC64A5631148124C18306034C1
:104A60002060C4F804804020A060E6602761666191
:104A7000A661E661C002206266622046FEF734FC51
:104A800008B1FDF7A1FCAC64A56307B0BDE8F083F5
:104A9000003001404438024000040240000002405F
:104AA000406402403C8E00202DE9F84F04460A9EE7
:104AB0008A4693461F4601254FF0000894F850009F
:104AC00001280ED0012084F85000FEF7A5FD814694
:104AD00094F85100616801280DD0B1F5827F07D1AB
:104AE00002E00220BDE8F88FA16809B9042802D0CD
:104AF0004FF00208C3E0BAF1000F28D0BBF1000F5D
:104B000025D0380023D094F85100042802D0052085
:104B100084F8510000206065C4F838B0E787A787A3
:104B2000C4F830A0E786A786206460642068016826
:104B3000490603D4016841F040010160E068B0F526
:104B4000006F07D06068E8B3012F48D07DE04FF0D8
:104B5000010894E0606808B1012F39D1206B216809
:104B60000088C860206B801C2063E08E401EE086B9
:104B70002EE02068816889070DD5E18E59B1012D9D
:104B800009D1216B0988C160206B801C2063E08EF5
:104B9000401EE086002520688168C9070BD0E18FA0
:104BA00049B1C068A16B0880A06B801CA063E08F36
:104BB000401EE0870125FEF72FFDA0EB0900B04263
:104BC00006D300E00BE0701C02D04FF0030856E063
:104BD000E08E0028CDD1E08F0028CAD13BE0206BC9
:104BE000216800780873206B401C2063E08E401E13
:104BF000E0862AE02068816889070DD5E18E59B1E9
:104C0000012D09D1216B09780173206B401C2063B1
:104C1000E08E401EE086002520688168C9070BD021
:104C2000E18F49B1C068A16B0870A06B401CA06304
:104C3000E08F401EE0870125FEF7EEFCA0EB0900A7
:104C4000B04201D3701C11D186B1E08E0028D1D1C1
:104C5000E08F0028CED14A463146204603F036FF89
:104C600038B14FF001082020606508E04FF00308DC
:104C700005E0A06818B92068C1688068009001202C
:104C8000503460700020207040462BE710B5401E65
:104C9000B0F1807F01D3012010BD4FF0E0246061AE
:104CA0000F21601706F0B1FD0020A06107202061F0
:104CB000002010BD7047704770B590F83C20012A65
:104CC00019D0012600F83C6F0222427050F83C2CAB
:104CD0005468936824F070050C682C4323F080031B
:104CE00049681943546050F83C2C9160467000218B
:104CF0000170002070BD022070BD10B50446002C6C
:104D000003D094F83D0010B107E0012010BD002051
:104D100084F83C00204600F00DF8022084F83D00A5
:104D2000211D206804F01AF9012084F83D000020BC
:104D300010BD000008B502682349B2F1804F07D1C9
:104D40000A6842F001020A600A6802F00102009259
:104D500000681E4A904211D1086840F002000860C5
:104D6000086800F002000090062211461D20FEF7A0
:104D7000D3FDBDE808401D20FEF7C0BD144A904297
:104D800008D1086840F008000860086800F00800D2
:104D9000009008BD0F4A90420AD10B48001D0168DF
:104DA00041F400310160006800F40030009008BD5B
:104DB000094A9042FBD1086840F004000860086886
:104DC00000F00400009008BD40380240000400409C
:104DD000000C00400044014000080040022180F81F
:104DE0003D1001688A6802F00702062A03D00A68AB
:104DF00042F001020A60012180F83D100020704756
:104E00000168CA6822F00102CA600068016A41F2C2
:104E10001112114207D1016A9210114203D10168A7
:104E200021F0010101600020704770B5044694F83C
:104E30003C00012817D0012584F83C50022084F85A
:104E40003D002068826822F0770222F47F4282606F
:104E50000868502831D00DDC20284DD005DCB0B3D7
:104E600010284ED148E0022070BD302844D04028A0
:104E700047D137E060282BD0702806D0B0F5805F8E
:104E80003FD0B0F5005F3CD10BE0CB68D1E9012108
:104E9000206804F0D6F82068816841F077018160CD
:104EA0002FE0CB68D1E90121206804F0CAF820681E
:104EB000816841F48041816023E0CA6849682068C4
:104EC00004F0B7F95021206804F0C5F819E013E0A8
:104ED000CA684968206804F0BDF96021206804F0C0
:104EE000BAF80EE0CA684968206804F0A2F94021C7
:104EF000206804F0B0F804E022680146104604F08F
:104F0000AAF83C3465700020207070BD704770B501
:104F10000446206801694FF00005C943890716D48B
:104F2000C168C943890712D4E91E016101202077B5
:104F300020688069800703D02046FFF7E7FF05E07F
:104F4000204600F015F9204600F09DF925772068ED
:104F50000169C943490718D4C168C943490714D432
:104F60006FF004010161022020772068806910F44D
:104F7000407F03D02046FFF7C9FF05E0204600F040
:104F8000F7F8204600F07FF9257720680169C943CA
:104F9000090717D4C168C943090713D46FF0080182
:104FA0000161042020772068C069800703D0204673
:104FB000FFF7ACFF05E0204600F0DAF8204600F0ED
:104FC00062F9257720680169C943C90618D4C16808
:104FD000C943C90614D46FF010010161082020777D
:104FE0002068C06910F4407F03D02046FFF78EFF91
:104FF00005E0204600F0BCF8204600F044F9257793
:1050000020680169C943C90708D1C168C943C907F4
:1050100004D1891E0161204600F058F92068016919
:10502000C943090609D4C168C943090605D46FF00C
:10503000800101612046FFF73DFE20680169C943F8
:10504000490609D4C168C943490605D46FF0400137
:105050000161204600F03BF920680169C9438906D7
:105060000BD4C168C943890607D46FF020010161E0
:105070002046BDE87040FFF71EBE70BD30B587B05A
:105080000446142102A8FBF769FE314D2068002375
:10509000304A02210124A84223D1106840F0800048
:1050A0001060106800F0800001904FF4E050029012
:1050B000039104940591069102A92748FEF7C2F9CD
:1050C0002648FFF78BFE0021244800F0DDF804217C
:1050D000224800F0D9F80821204800F0D5F807B0A0
:1050E00030BD1F4DA8421CD1106840F02000106058
:1050F000106800F020000190402002900391049479
:1051000005910320069002A91648FEF79BF9134863
:105110004030FFF763FE11480021403000F0B4F842
:10512000DDE7114CA042DAD1106840F008001060B1
:10513000106800F00800019020140290039104937D
:105140000593069102A90948FEF77CF9C7E700001C
:10515000000C004030380240001C0240BC8F002090
:10516000004401400014024000080040000C0240CE
:10517000704770B504460D4694F83C0001280DD0E8
:10518000012684F83C60022084F83D0042B1042AE4
:105190001AD0082A2DD00C2A53D13EE0022070BD2F
:1051A0002946206803F060FF2068816941F008010A
:1051B00081612068816921F0040181612068816931
:1051C0002A69114381613CE02946206803F080FF91
:1051D0002068816941F4006181612068816921F45E
:1051E00080618161206881692A6941EA02218161C7
:1051F00027E02946206803F0A5FF2068C16941F037
:105200000801C1612068C16921F00401C161206801
:10521000C1692A691143C16113E02946206803F07E
:10522000C9FF2068C16941F40061C1612068C1699A
:1052300021F48061C1612068C1692A6941EA0221C3
:10524000C1613C3466700020207070BD10B504460A
:10525000002C03D094F83D0010B107E0012010BDF0
:10526000002084F83C00204600F00CF8022084F86E
:105270003D00211D206803F071FE012084F83D00EF
:10528000002010BD7047704710B504460122206809
:1052900003F0CAFE0B482168814202D00A488142CD
:1052A00003D1486C40F4004048642068816801F0F4
:1052B0000701062903D0016841F0010101600020C7
:1052C00010BD00000000014000040140704770471D
:1052D0007047000010B500681249884220D112487A
:1052E00000681148001D00681048FDF7BBFE0F481C
:1052F00000684068C0F5807082B20D48428001218C
:1053000041700C4901F58070FBF70FFD0549BDE8C0
:1053100010404FF48073074A091D0448FEF74EB849
:1053200010BD000000140140004C00401C93002000
:10533000180400203C90002070B5044622681068D4
:10534000D168526900F00F03002B08D1850606D5FD
:105350008D0604D52046BDE8704003F0B0BF002B99
:105360005FD002F0010301F490752B4359D0C307BD
:1053700005D0CB0503D5E36B43F00103E36343079B
:1053800005D5D30703D0E36B43F00203E363830740
:1053900005D5D30703D0E36B43F00403E3630307AE
:1053A00005D5D20703D0E26B42F00802E263E26B5C
:1053B000002A2BD0800604D5880602D5204603F0AB
:1053C0007EFF20684069C0F38010E16B01F00801A6
:1053D000014320D0204603F057FF20684169490669
:1053E00015D5416921F040014161606B58B1164902
:1053F0000165606BFDF77DFE002807D0606B016DD5
:10540000BDE8704008472046FFF762FF70BD2046A8
:10541000FFF75EFF70BD2046FFF75AFF0020E063F4
:1054200070BD020606D50A0604D52046BDE87040C8
:1054300004F01EB94006F3D54806F1D52046BDE874
:10544000704003F02FBF00007992000870B5044649
:10545000002C04D094F83900002510B106E001209A
:1054600070BD84F83850204600F022F8242084F8DB
:1054700039002068C16821F40051C160204603F062
:105480006DFF2068016921F4904101612068416944
:1054900021F02A0141612068C16841F40051C160D6
:1054A000E563202084F8390084F83A00002070BDBC
:1054B0002DE9F04387B00446142102A8FBF74EFC07
:1054C0005C495B4B2068022200260F154FF0030851
:1054D00098426AD157481430036843F020030360B0
:1054E000006800F020000190086840F0400008606B
:1054F000086800F0400001904FF48440029003924D
:1055000001200490CDF814800820069002A94A4892
:10551000FDF798FF4A4D494828604FF02069C5F8CB
:105520000490AE60EE602F616E61AE61EE612E623E
:105530006E622846FDF7D8FE08B1FCF745FF6563AB
:10554000AC633E483E4D783060352860C5F8049025
:105550004020A860EE602F616E61AE61EE612E6248
:1055600004206862C5F82880EE622E632846FDF7A5
:10557000BBFE08B1FCF728FF2563AC6300220521C0
:105580004720FEF7C9F94720FEF7B8F92C49403902
:105590000868C26842F02002C2600868C16841F031
:1055A0001001C16007B0BDE8F083264B9842F9D1E5
:1055B00020481030036843F480230360006800F43F
:1055C00080200190086840F004000860086800F03E
:1055D000040001904FF44060029003920496CDF8CD
:1055E00014800720069002A91748FDF72BFF144DE1
:1055F0001648A03D28604FF000606860AE60EE6025
:105600002F616E61AE61EE61801228626E62284683
:10561000FDF76AFE08B1FCF7D7FE6563AC630022B4
:1056200005212720FEF778F92720FEF767F9B9E76B
:105630000014014030380240001802402864024043
:105640001C930020004800400008024028600240EF
:105650007047000000680349884202D102490020D7
:1056600008707047001401401804002070B504460B
:10567000002020743B4DA27B616828884243D4F807
:10568000F400FBF752FBA17B288841436068FBF7DD
:1056900065FBA07B10FB00F128884143D4F818017A
:1056A000FBF75CFB207BA17B10FB01F128884143C9
:1056B000D4F80C01FBF752FB002029E0D4F8F410D9
:1056C00001EB800292ED000AB5EEC00AF1EE10FA8D
:1056D0001CD0227C01EB820181ED000A227C616AF0
:1056E0008854A169227B01EB8001237C91ED000AA3
:1056F0006169095C12FB0311D4F80C21491E02EB0D
:10570000810181ED000A217C491C2174401CC0B23A
:10571000A17B8142D2D8002010E0636AE26900FBDD
:1057200001011B5C02EB830292ED000AD4F8182100
:1057300002EB810181ED000A401CC0B2217C814254
:10574000EBD85C3414F84C0CA08314F8500CE083B4
:10575000A084E184A186E186A087E18724F8141C57
:1057600070BD00003C030020FEE70000F0B50446D9
:105770002DED068B87B00E461546884FD4ED040AF2
:10578000874897ED100A30EEC00AB0EEC00A10EE5E
:10579000101A814219DC94ED050A97ED111A30EECA
:1057A000410AB0EEC00A10EE101A81420DDC94EDF1
:1057B000060A97ED121A30EE410AB0EEC00A10EE5A
:1057C000101A814201DC2078F0B3DFED76AA80EE7A
:1057D000AA0AFAF755FDF0EE409AD4ED050A80EEDC
:1057E000AA0AFAF74DFDB0EE409AD4ED060A80EE13
:1057F000AA0AFAF745FDB0EE40AAD4ED040A80EEFD
:10580000AA0AFAF7A9FDF0EE408AD4ED050A80EE67
:10581000AA0AFAF7A1FDB0EE408AD4ED060A80EE9E
:10582000AA0AFAF799FD69EE8A0A68EE881AB0EEBC
:10583000601A01EE801A87ED131A29EE281A87EDF7
:10584000141A29EE801A00E027E06AEE281A01EE09
:10585000C81A87ED151A29EE881A21EE001A0AEEE9
:10586000681A87ED161A29EE891A87ED171AB1EE14
:10587000681A21EE001A00EEC81A87ED181AF1EE28
:10588000490A20EE800A87ED190A87ED1A8A29EE67
:105890000A0A87ED1B0A00202070002004A906EBED
:1058A000800292ED000A04EB8002D2ED010A01EBC6
:1058B000800220EE200A82ED000A401CC0B20328BC
:1058C000EDD39DED040A97ED135ADDED050A97ED32
:1058D000144A20EE052A9DED061AD7ED151A04EE9E
:1058E000202A01EE812A86ED002A97ED162A97EDEF
:1058F000173AD7ED182A60EE023A43EE203A42EE0C
:10590000813AC6ED013AD7ED193AD7ED1A4AD7EDEB
:105910001B5A20EE230A04EEA00A05EE810A86ED4A
:10592000020A002001A905EB800292ED000A01EBBA
:10593000800282ED000A401CC0B20328F3D39DED23
:10594000010ADDED020A9DED031A20EE055A04EE70
:10595000205A01EE815A85ED005A60EE021A43EE9C
:10596000201A42EE811AC5ED011A20EE230A04EE38
:10597000A00A05EE810A85ED020A94ED040A87ED7E
:10598000100A94ED050A87ED110A94ED060A87EDD9
:10599000120A07B0BDEC068BF0BD000048010020E4
:1059A0006F12833AE12E654210B504462DED048B4B
:1059B000D4F8EC00D0ED009A90ED018AD0ED028A87
:1059C00090ED039A29EEA90A08EE080A08EEA80A43
:1059D00009EE090A07F01AF90020D4F8EC1001EBDF
:1059E0008001D1ED000A60EE800AC1ED000A401C82
:1059F000C0B20428F1D33A48F83490ED6F0AA16898
:105A000060EE080AB6EE000A60EE800AC1ED040AF4
:105A1000D0ED6F0AA16860EEA80A60EE800AC1EDC1
:105A2000050AD0ED6F0AA16820EEA91AFEEE000A61
:105A300021EE201A81ED0A1A90ED6F1AA16821EE6D
:105A4000091A21EE001A81ED0B1A90ED6F1AA16868
:105A500021EE091A21EE201A81ED101A90ED6F1A2D
:105A6000A16821EE291A21EE201A81ED111A90ED7C
:105A70006F1AA16821EE281A21EE000A81ED160A9C
:105A800090ED6F0AA16820EE080A20EE200A81ED51
:105A9000170A2168D0ED740A91ED1C0A80EE201AD5
:105AA00081ED1C1A2168D0ED740A91ED230A80EE75
:105AB000201A81ED231A54F8F8090A499FED0A0AC1
:105AC000026F8A4201DD80ED1C0AD4F8F800D0F89C
:105AD0008C208A4201DD80ED230ABDEC048B10BDD1
